:020000040800F2
:10000000A0130020F1370008ED100008EF100008E1
:10001000F3100008F7100008FB10000800000000B3
:10002000000000000000000000000000FF100008B9
:10003000011100080000000003110008051100086C
:100040000B3800080B3800080B3800080B38000884
:100050000B3800080B3800080B3800080B38000874
:100060000B3800080B3800080B3800080B38000864
:100070000B3800080B3800080B3800080B38000854
:100080000B3800080B3800080B3800080B38000844
:100090000B3800080B3800080B3800080B38000834
:1000A0000B3800080B3800080B3800080B38000824
:1000B000610F0008990F0008CF3600080B380008C0
:1000C0000B3800080B3800080B3800080B38000804
:1000D0000B380008593600080B3800080B380008A8
:1000E0000B3800080B3800080B3800080B380008E4
:1000F0000B3800080B3800080B3800080B380008D4
:100100000B3800080B3800080B3800080B380008C3
:100110000B3800080B3800080B3800080B380008B3
:100120000B3800080B3800080B3800080B380008A3
:1001300000F002F800F05FF80AA090E8000C82449A
:100140008344AAF10107DA4501D100F054F8AFF277
:10015000090EBAE80F0013F0010F18BFFB1A43F0A5
:1001600001031847086E0000286E00000A444FF093
:10017000000C10F8013B13F0070408BF10F8014B06
:100180001D1108BF10F8015B641E05D010F8016B4B
:10019000641E01F8016BF9D113F0080F1EBF10F8AF
:1001A000014BAD1C0C1B09D16D1E58BF01F801CBD2
:1001B000FAD505E014F8016B01F8016B6D1EF9D555
:1001C0009142D6D37047000000230024002500266A
:1001D000103A28BF78C1FBD8520728BF30C148BFAA
:1001E0000B607047732905F0A084002070471FB58D
:1001F0001FBD10B510BD05F0CBFC1146FFF7F7FF92
:1002000000F0E6FC05F0E9FC03B4FFF7F2FF03BCE5
:1002100003F0B6F970B50024C1E0052C17DCFB49EA
:10022000A01C085C302803DBA01C085C392804DD16
:10023000F649A01C085C2E2805D1F449A01C085CD6
:10024000F3490855A9E03020F1490855A5E0082CEC
:1002500015DC062C0BD10025EE49EF48006806F0AE
:100260005BFB04D23020EA490855601C84B2EB499C
:10027000A81C085CE6490855681C85B28DE00B2C6B
:100280000ADC092C00D10025E549E81C085CE0499E
:100290000855681C85B280E00E2C21DC0C2C17D18F
:1002A0000025E04800680A2809D23020D8490855BE
:1002B0003021D74A601C1154A01C84B208E0D948F0
:1002C0000068642804D23020D1490855601C84B2EB
:1002D000D549A81C085CCE490855681C85B25CE06D
:1002E000112C17DC0F2C00D10025022D05DACF4987
:1002F000281D085CC649085509E0CD4800780A2148
:1003000090FBF1F201FB12003030C1490855681C26
:1003100085B242E0152C27DC122C1DD10025C548E2
:1003200000680A280BD23020B94908553021B84A54
:10033000601C1154A01C1154E01C84B20CE0BD4898
:100340000068642808D23020B14908553021B04AED
:10035000601C1154A01C84B2B749A81C085CAC49AD
:100360000855681C85B218E0172C16DC162C00D135
:100370000025B248008864280ADAB149A81C085C44
:10038000A3490855AD48008828B93020085502E037
:1003900030209F490855681C85B2601C84B2182C17
:1003A000FFF63BAF70BD30B50123014605E00A24DE
:1003B00091FBF4F4A1B25C1CE3B20A2491FBF4F4C7
:1003C000002CF4DC01465C1CE2B20DE00A2491FB37
:1003D000F4F504FB15143034994DAC540A2491FB08
:1003E000F4F4A1B2541EE2B2012AEFDC014619B9BD
:1003F0003024934DAC70EC7030BD2DE9F04F844645
:100400000B46904601260121012762464FF00A095A
:10041000B3FBF9F4B3FBF9FA09FB1A39DFF810A2C0
:100420008AF80090454607E04FF00A09B2FBF9F25E
:1004300006F1010909F0FF064FF00A09B2FBF9F9CC
:10044000B9F1000FF0D107E04FF00A09B4FBF9F45D
:1004500001F1010909F0FF014FF00A09B4FBF9F9B4
:10046000B9F1000FF0D107E04FF00A09B5FBF9F53B
:1004700007F1010909F0FF074FF00A09B5FBF9F987
:10048000B9F1000FF0D162464FF00A09B3FBF9F45D
:1004900045464FF05509DFF890A18AF800904FF0DB
:1004A0003A098AF801904FF0560ADFF87CB106F15C
:1004B00002090BF809A04FF0000A06F103090BF836
:1004C00009A006F1010909F0FF0013E04FF00A0945
:1004D000B2FBF9FA09FB1A2909F13009DFF848A142
:1004E0000AF800904FF00A09B2FBF9F2A0F10109F5
:1004F00009F0FF000128E9DC022903D101F101091B
:1005000009F0FF01012903D101F1020909F0FF01FE
:100510004FF04909DFF814A18AF800904FF03A092A
:100520008AF801904FF0410ADFF800B101F10309A8
:100530000BF809A04FF0000A01F104090BF809A01B
:1005400001F1020909F0FF001CE0884206D14FF0DA
:100550002E09DFF8D8A00AF800900FE04FF00A0942
:10056000B4FBF9FA09FB1A4909F13009DFF8BCA01C
:100570000AF800904FF00A09B4FBF9F4A0F1010960
:1005800009F0FF000128E0DC4FF05009DFF8A8A0D7
:100590008AF800904FF03A098AF801904FF0570A14
:1005A000DFF894B007F102090BF809A04FF0000A38
:1005B00007F103090BF809A007F1010909F0FF0091
:1005C00013E04FF00A09B5FBF9FA09FB1A5909F1D2
:1005D0003009DFF864A00AF800904FF00A09B5FB73
:1005E000F9F5A0F1010909F0FF000128E9DCBDE8F7
:1005F000F08F2DE9F041074601240649384606F000
:10060000BFF9804606F040F9064620E0AC01002024
:10061000240200200000C84274000020C001002015
:10062000D401002020010020E8010020FC0100206E
:10063000AA0000202C01002010020020B60000209B
:10064000B80000200A20B6FBF0F6601CC4B20A20F5
:10065000B6FBF0F00028F5D15020FE4908704D207F
:1006600048703A208870022C01D1601CC4B2012C61
:1006700001D1A01CC4B25621F64AE01C1154F6491F
:10068000384606F07DF9804606F0FEF80646E01C86
:10069000C5B213E0601C854203D12E20ED494855B8
:1006A0000AE00A20B6FBF0F100FB11603030E949A6
:1006B00048550A20B6FBF0F6681EC5B2022DE9DCEB
:1006C000BDE8F0812DE9F047E448008806F010F914
:1006D000804605F07DFF06464FF06632E04B05F0A0
:1006E00059FD044605F084FADE49086008460068B2
:1006F00005F06EFF0446DC4ADC4B05F00FFD03D22B
:100700000020DB49086012E0D648006805F060FF71
:100710000646D54AD54B05F071FE0446D54AD64B60
:1007200005F04CFB804605F063FAD1490860D048DB
:100730000068FFF75EFFC74A0421012001F0AEF90F
:10074000BDE8F08770B5034601214FF47A74B3FB1E
:10075000F4F204E00A24B2FBF4F24C1CE1B20A24E5
:10076000B2FBF4F4002CF5D14FF47A74B3FBF4F23D
:100770005024C24D2C703A246C704B25BF4ECC1CBB
:10078000355570250C1D35558C1CE0B212E08842A1
:1007900003D12E24B94D2C540AE00A24B2FBF4F5FF
:1007A00004FB15243034B54D2C540A24B2FBF4F26A
:1007B000441EE0B20128EADC70BD70B501F05FFBB9
:1007C000AF48006805F07FFC04460022AD4B05F001
:1007D000F5FAAD4A03C2AD48006805F074FC044662
:1007E0000022AB4B05F0EAFAAA4A03C24FF4FA70B2
:1007F00002F099FEA2480068FFF7A4FFFFF70AFD88
:100800009E4A0021032001F049F970BD2DE9F04115
:10081000074601249049384606F0B2F8804606F0B3
:1008200033F8064604E00A20B6FBF0F6601CC4B2BA
:100830000A20B6FBF0F00028F5D154209649087044
:100840003A2048702021944AE01C1154A121201D17
:100850001154E621601D11547F49384606F090F886
:10086000804606F011F80646A01CC5B212E0A5426B
:1008700003D12E20884948550AE00A20B6FBF0F142
:1008800000FB11603030844948550A20B6FBF0F671
:10089000681EC5B2012DEADCBDE8F0812DE9F0410A
:1008A00010207E49086001F057FD7D490870084618
:1008B00000787C490860084600680002086001F082
:1008C0004BFD7749087010207449091F086075486E
:1008D000006873490978084372490860084600783F
:1008E00000F00400704908706E48006840006F49CD
:1008F000086008460068000908600846006805F0BE
:10090000F9FB064600226A4B05F044FC044605F05C
:100910006FF96849086000206749087061480068FD
:1009200058B16148007840B962480068FFF76EFF2F
:10093000594A0021022001F0B1F8BDE8F08170B5FC
:100940005E48007805F0D4FF04465A480168204606
:1009500006F0E2F803D20120594908700EE057482A
:100960000078401D05F0ACFF04465248016820465F
:1009700005F0D2FF02D20020514908703A4A514B8B
:10098000514903C905F03AFD04463F480CC82046CA
:1009900005F0FEFC03D202204C4908702DE0324ADB
:1009A000484B494903C905F055F9044636480CC877
:1009B000204605F0B3FB03D20020444908701CE038
:1009C000294A434B404903C905F018FD04462E4807
:1009D0000CC8204605F0A2FB0FD2234A3C4B3A49F3
:1009E00003C905F037F9044627480CC8204605F02E
:1009F000CFFC02D20120354908703648006805F066
:100A00005FFF044634491A48006805F0B9FF0546FF
:100A1000214606F081F803D201203049087002E037
:100A200000202E49087026480078012870D12B48F4
:100A300000780128FAD12A480078302856D10120C0
:100A4000284908602849C1F8A801264908310860EA
:100A500083E00000D40100200000C8429E00002076
:100A600066664A3FA00000207B14AE47E17AB43F9F
:100A7000640000209A9999999999C93FAC01002086
:100A8000F8000020006AF84088000020F4000020F0
:100A900000408F4090000020C00100201408014059
:100AA000700000206C000020710000206800002011
:100AB0000000D03F740000206100002005000020ED
:100AC000A7000020E17AA43F08000020A800002031
:100AD000E17A843F1000002000002041A90000209E
:100AE000A5000020A481214200802142F94800781D
:100AF00031280ED10120F8490860F849C1F8A80151
:100B00000020F549083108603420F249087024E0DB
:100B100054E0F048007832280DD10020EE490860FA
:100B20000120EE49C1F8A801EB49083108603420E2
:100B3000E849087011E0E748007833280DD101201A
:100B4000E54908600020E549C1F8A8010120E24913
:100B5000083108603420DF490870DE48007830280A
:100B600035D0DF48007850B90120DB490860DB4907
:100B7000C1F8A8010020D8490831086027E0D8480A
:100B8000007801280AD10020D34908600120D34908
:100B9000C1F8A801D0490831086018E0D0480078B1
:100BA000022814D10120CC4908600020CB49C1F8AB
:100BB000A8010120C8490831086008E00120C649A1
:100BC0000860C649C1F8A801C3490831086070BD72
:100BD0001CB500F008FB02F069FCC82002F0A3FC81
:100BE00001F0F3FD4FF4A06003F02CFD00F059FE7E
:100BF00001F03AFA01F066FB01F03EFC00F074FBF4
:100C000002F01EFC00F0B2FB4721092000F024FC9A
:100C100041F61F41632002F08EFD002002F00BFD23
:100C200001F0B6FB302000F099FD4FF4165002F0B1
:100C3000B6FC00F0C8FC4BE1FFF781FEA948007844
:100C400040B10A21012001F0FCFBA74908800020E7
:100C5000A4490870A5480078012805D1FFF71EFEB9
:100C6000FFF7ABFDFFF72EFDA1480078012825D145
:100C700001F0B9FD9F4802689F4801689F480068DD
:100C8000FFF7BBFB9E4A0021084600F007FF9C4A85
:100C90000021012000F002FF9A4A0021084600F0DE
:100CA000FDFE994A0421002000F0F8FE974A002139
:100CB000012000F0F3FE00208D4908709448007870
:100CC0000D2810D0934800780128B4D10020914914
:100CD00008708F48007802F0DFFA8D490870002014
:100CE0008D490870F4E08B480078012848D1002035
:100CF000884908708948008846282DDD8748008883
:100D0000072190FBF1F0C01D85490988884209DC64
:100D100082480088072190FBF1F0C01F80490988B4
:100D200088420EDA7D490988072291FBF2F17C4A5C
:100D30001288881800EBD071C1F34F01784A1180F6
:100D400015E07748008890B974480088072190FB27
:100D5000F1F0734908800AE070480088462806DAF6
:100D600000206E4908806F4908806D4908806C48F2
:100D70000088FFF718FB6C4A0621032000F08EFE66
:100D800065480078012813D1FFF744FA1822674913
:100D9000674802F05AFA654966A002F0DBF920B113
:100DA00065480078401C6449087000205A49087062
:100DB0006248008800F40040002893D000205F497A
:100DC0000988C1F30E015E4A50541046007B5D490C
:100DD00008700846007830280BD008460078312883
:100DE00007D008460078322803D008460078332818
:100DF0006BD154480078374908705149097EA1F1F8
:100E0000300005F060F9064600224F4B04F022FF47
:100E1000044600224D4B04F0D1FF82468B464849E0
:100E2000897DA1F1300005F04EF980460022484B43
:100E300004F0C4FF04460D464149897B30396422E1
:100E400051433F4A127C303A02EB820201EB4202EC
:100E50003B49897C3039501805F035F90646224661
:100E60002B4604F0F7FE52465B46CDE9000104F044
:100E7000F1FE384A03C23248807E30383649087065
:100E80002F48007F097801EB810100EB41003038E9
:100E9000314908702A48807F097801EB810100EB15
:100EA000410030382C490870254890F8200030382F
:100EB0002A490860224890F82400096801EB810162
:100EC00000EB410030382549086000201B490880AC
:100ED000B2E60000A5000020A4812142008021424A
:100EE000A8000020A40000209E0000206100002037
:100EF000600000202C01002024010020200100209F
:100F000028000020E8010020FC0100201002002041
:100F1000AB0000205E0000205C000020B400002038
:100F2000B6000020B2000020B800002042020020DD
:100F30002402002032340000AE000020B000002067
:100F4000780C0020A60000200000E03F000059407F
:100F500000002440080000200500002010000020B0
:100F600010B50221480704F0C8FA60B14C48008867
:100F7000B0F5487F02DD00204949088048480088D4
:100F8000401C474908800221480704F0BFFA0121AC
:100F9000880704F0CFFA10BD10B50121414804F0D4
:100FA000B8FA00287BD001213E4804F0C3FA3E483D
:100FB000006838B940F2E7303B49086020203B49DF
:100FC00008701AE03948007818B9012038490860DB
:100FD0000EE000203649086034480078401E33494E
:100FE000087008460078032802D1012031490870B2
:100FF0002D480068401E2C4908602F480168006891
:10100000401E2D4A1060002949D101202B4908704B
:101010002B4811460860224800882A490880002091
:101020001F4908800120284908702848006808B92D
:10103000012000E0002025490860254800780428A8
:1010400006D100202249087001202249087004E0DE
:101050001F480078401C1E4908701F48007860B97E
:101060001E4801780078401E1C4A107029B90120E2
:10107000194908700A20114608701948007848B9C3
:1010800003201749087017480078012807D116492E
:10109000087004E012480078401E1149087010BD25
:1010A000B200002000040040980000209C000020B6
:1010B0008C012142A4000020500000205E0000208E
:1010C0009F860100B4000020610000208881224238
:1010D00059000020600000205C0000205D0000201E
:1010E0005A000020AC000020AD000020704700BF77
:1010F000FEE700BFFEE700BFFEE700BFFEE7704768
:1011000070477047704700000CB5002001900090B8
:101110006C48006840F480306A49086000BF694844
:10112000006800F4003000900198401C0190009885
:1011300018B90198B0F5A06FF1D16248006800F4C9
:10114000003010B10120009001E0002000900098D4
:10115000012843D15C48006840F010005A490860FB
:101160000846006820F0030008600846006840F068
:101170000200086053484068524948600846406889
:1011800048600846406840F480604860084640680F
:1011900020F47C1048600846406840F4E81048603D
:1011A0000846006840F08070086000BF454800684D
:1011B00000F000700028F9D04248406820F0030099
:1011C000404948600846406840F00200486000BF5F
:1011D0003C48406800F00C000828F9D10CBD10B55F
:1011E000FFF792FF10BD10B53648006840F00100CF
:1011F000344908600846406834490840314948602D
:1012000008460068324908402E49086008460068D0
:1012100020F4802008600846406820F4FE00486002
:101220004FF41F008860FFF7DAFF4FF00060294994
:10123000086010BD10B5002100200022214B5B6822
:1012400003F00C0121B1042906D0082928D107E0B8
:10125000214B224C236027E01F4B204C236023E0CE
:10126000184B5B6803F47010164B5B6803F4803214
:10127000022303EB904022B9194B4343174C2360E0
:101280000DE0104B5B6803F4003323B1144B434370
:10129000124C236003E0104B4343104C236003E0E7
:1012A0000D4B0E4C236000BF00BF064B5B68C3F3C1
:1012B00003130C4CE15C094B1B68CB40074C2360CB
:1012C00010BD000000100240002002400000FFF8A6
:1012D000FFFFF6FE08ED00E000127A00C4000020D7
:1012E00000093D00C800002008B50121302002F0AF
:1012F000BBFD4FF40040ADF8000010208DF8030056
:1013000003208DF802006946094802F0F1FA4FF413
:101310000041074802F099FB0420ADF8000069463F
:10132000044802F0E5FA0421024802F08EFB08BDF1
:10133000001001400014014008B50121442002F0D2
:1013400093FD1C20ADF8000048208DF8030069468D
:101350003E4802F0CDFA0120ADF8000028208DF8BB
:10136000030069463A4802F0C3FA08BD08B50121F6
:10137000042002F079FD4FF48050ADF800002820E1
:101380008DF803006946324802F0B2FA08BD10B584
:10139000044614B101202F4908702E480078002817
:1013A00037D01021294802F036FB78B108212748B0
:1013B00002F031FB50B10421244802F02CFB28B18B
:1013C0000121234802F027FB012822D10A2002F044
:1013D000AAF800201F49087010211C4802F01BFBCE
:1013E00008B9012010BD0821184802F014FB08B903
:1013F0000220F7E70421154802F00DFB08B903208D
:10140000F0E70121124802F006FB01281BD104205D
:10141000E8E710210D4802F0FEFA012813D1082157
:101420000A4802F0F8FA01280DD10421074802F019
:10143000F2FA012807D10121054802F0ECFA10B9AF
:101440000120044908700020CCE70000001801408A
:1014500000080140D80000207FB505460C46012158
:10146000022002F00EFDADF80850ADF80440002057
:10147000ADF80A00ADF8060001A9724803F024FA9D
:10148000012211466F4803F096FD1D208DF80000E3
:1014900000208DF8010003208DF8020001208DF856
:1014A0000300684603F0D3F80121664803F068FDA5
:1014B0007FBD30B589B005460C460121022002F0FF
:1014C000E0FC0121092002F0CFFC01215E4802F07E
:1014D000E0FA2020ADF8200018208DF8230003202A
:1014E0008DF8220008A9594802F002FAADF8185008
:1014F000ADF814400020ADF81A00ADF8160005A9AB
:10150000504803F0E1F97020ADF804000120ADF877
:1015100006000020ADF80C0001A94A4803F053FA78
:101520000821484803F065FE0121464803F028FDE4
:1015300009B030BD30B589B005460C460121C8025E
:1015400002F092FC0121042002F08EFC4FF4807026
:10155000ADF8200018208DF8230003208DF822001C
:1015600008A93B4802F0C4F9ADF81850ADF8144092
:101570000020ADF81A00ADF8160005A9354803F0B3
:10158000A3F97020ADF804000120ADF8060000209A
:10159000ADF80A000220ADF80C0001A92D4803F0B7
:1015A000D0F908212B4803F01BFE0121294803F044
:1015B000E7FD0121274803F0EFFC0121254803F056
:1015C000DFFC09B030BD00B585B00121084602F04E
:1015D00058FC0121042002F047FC28208DF813005C
:1015E0000120ADF8100004A9194802F081F900208B
:1015F000ADF80400ADF80C00ADF80600ADF80A0037
:101600000120ADF8080001A9800703F0F0FB1C20C1
:101610008DF8000001208DF8030002208DF80100F4
:1016200000208DF80200684603F011F80122032122
:10163000900703F0C0FC0121880703F0A1FC05B06E
:1016400000BD00000004004000081A00000C01402A
:1016500000080140002C01400146002015E001FA7D
:1016600000F202F080021AB10122F84B1A6002E087
:101670000022F64B1A600122F44B1B1D1A60002257
:10168000F34BC3F8A021421C90B20828E7DB704757
:1016900030B500220023002115E05406220E00245C
:1016A000EA4D2D1D2C600124E94DC5F8A041002410
:1016B000C5F8A041E74CD4F89C41012C01D1541C41
:1016C000E2B24C1CE1B20829E7DB002115E05C0620
:1016D000230E0024DD4D2D1D2C600124DC4DC5F8AA
:1016E000A0410024C5F8A041DA4CD4F89C41012C5B
:1016F00001D15C1CE3B24C1CE1B20829E7DB02F02B
:10170000F00203F00F03D418E0B230BD00B500BF03
:10171000FC20FFF7A1FFFFF7BBFF00F080000028CF
:10172000F6D100BD10B504460120C849091F086064
:10173000FFF7ECFFFA20FFF78FFF04F0F000FFF750
:101740008BFFF02101EA0410FFF786FF022001F071
:10175000EAFE0020BE49C1F8980110BD10B504464C
:101760000120BA49091F0860FFF7D0FFF820FFF7F2
:1017700073FF04F0F000FFF76FFFF02101EA04109F
:10178000FFF76AFF022001F0CEFE0020B049C1F849
:10179000980110BD70B504460D4634B1012C06D039
:1017A000022C06D0032C08D105E0802405E090240B
:1017B00003E0882401E0982400BF00BF6019C6B28E
:1017C0003046FFF7CBFF70BD2DE9F04104460D46D2
:1017D0001646042C00DD0124062D00DD00252946D7
:1017E0002046FFF7D7FF37463846FFF79BFFBDE897
:1017F000F0812DE9F04105461646002000222B46D7
:10180000374613E04FF00A0C93FBFCF80CFB183C36
:101810000CF1300C01F800C04FF00A0C93FBFCFCFB
:101820001FFA8CF300F1010C0CF0FF00092B01DD15
:10183000B842E7DB03F1300C01F800C000F1010C05
:101840000CF0FF00002212E08C5CA0EB020CACF16B
:10185000010C11F80CC001F802C0A0EB020CACF1B5
:10186000010C01F80C4002F1010C0CF0FF0200EB3E
:10187000D078B2EB680FE7DBBDE8F08100200DE027
:10188000002107E00022744B03EB401323F81120E2
:101890004A1CD1B21029F5DB421CD0B24028EFDB44
:1018A000704708B50121112002F0DEFA01216B48D2
:1018B00002F0EFF80121082002F0D6FA01210820F9
:1018C00002F0D2FA0121082002F0CEFA10208DF8A1
:1018D00003004020ADF8000003208DF802006946A7
:1018E0005F4802F005F840215D4802F0AEF8102094
:1018F0008DF803008020ADF8000003208DF8020071
:101900006946574801F0F4FF8021554802F09DF8E0
:1019100010208DF803000001ADF8000003208DF8C1
:10192000020069464E4801F0E3FF4FF480714C48D5
:1019300002F08BF8022001F0F6FD3020FFF70EFFD9
:10194000052001F0F0FD0C20FFF708FF052001F055
:10195000EAFD0120FFF702FF052001F0E4FD06206B
:10196000FFF7FCFE052001F0DEFDFFF787FF08BD55
:1019700000B5FFF7CBFEFE20FFF76EFEFFF788FEF7
:1019800000BD10B53020FFF7E9FE8020FFF7E6FE2E
:10199000002404E02020FFF7C5FE601CC4B2402CE8
:1019A000F8DB10BD70B53420FFF7D8FE3620FFF706
:1019B000D5FE002411E044F08000FFF7CFFE802028
:1019C000FFF7CCFE002504E00020FFF7ABFE681C0B
:1019D000C5B2202DF8DB601CC4B2202CEBDB70BD3F
:1019E0002DE9F04104460E4617460CB980250AE061
:1019F000012C01D1902506E0022C01D1882502E0BE
:101A0000032C00D198252846FFF7A8FE4FF00008C8
:101A100007E016F8010BFFF785FE08F1010000F062
:101A2000FF08B8EB470FF4DBBDE8F0812DE9F04784
:101A300007460D4690464FF004099FB1012F13D081
:101A4000022F13D0032F15D112E000009C812142F8
:101A50000080214200002142E80200200002300004
:101A6000000C0140802405E0902403E0882401E07C
:101A7000982400BF00BF2046FFF770FE002608E054
:101A800015F8010BFFF74EFE404601F04CFD701CAF
:101A9000C6B2B6EB890FF3DBBDE8F0872DE9F04164
:101AA00006460F461446042E00DD0126062F00DDF3
:101AB000002739463046FFF76DFE257805E02846B9
:101AC000FFF730FE601C04460578002DF7D1BDE815
:101AD000F0812DE9F041074600253420FFF73EFE56
:101AE0003620FFF73BFE002413E044F08000FFF7B0
:101AF00035FE8020FFF732FE002606E0785DFFF716
:101B000011FE681C85B2701CC6B2102EF6DB601C7C
:101B1000C4B2202CE9DB002413E044F08000FFF77E
:101B20001DFE8820FFF71AFE002606E0785DFFF70D
:101B3000F9FD681C85B2701CC6B2102EF6DB601C65
:101B4000C4B2202CE9DBBDE8F081F0B50B461646A7
:101B5000202B0ADBA3F12005EAB20546C71700EBEC
:101B600017773F110837F9B206E01A460546C7173E
:101B700000EB1777C7F307110546C71700EB177778
:101B80003F11A0EB0717DFF820C13CF817405EB902
:101B9000464D05EB421535F81150A543434F07EB71
:101BA000421727F811500AE0404D05EB421535F871
:101BB000115025433D4F07EB421727F81150F0BD58
:101BC00070B500241DE044F08000FFF7C7FD8020C1
:101BD000FFF7C4FD002510E0344901EB441131F852
:101BE00015100812FFF79EFD304901EB441111F862
:101BF0001500FFF797FD681CC5B2102DECDB601CCB
:101C0000C4B2402CDFDB70BD2DE9F04F074688469B
:101C1000154605EB4500264901EB400090F805B05C
:101C2000002420E0CBF10501102040FA01F9002644
:101C300015E005EB45001E4901EB400010F804A03B
:101C40000AEA090038B104EB0802D1B2F219D0B2A5
:101C50000122FFF77AFF4FEA6909701CC6B25E45A0
:101C6000E7DB601CC4B2052CDCDBBDE8F08F2DE99E
:101C7000F0410646884615461F4600240FE02A5DBF
:101C800041463046FFF7C0FF285D00EB40000849A1
:101C900001EB400040793044C6B2601CC4B2BC4283
:101CA000EDDBBDE8F0810000B46C0008E802002024
:101CB000666C0008DB4800BF0100A0F10100FBD109
:101CC00070472DE9F04107460D46164600F0E5F94C
:101CD000EE2000F094FA00F021FA384600F08FFA76
:101CE00000F01CFA00F0D9F9EF2000F088FA00F0BB
:101CF00015FA00240DE0701EA04204D1002000F06F
:101D0000A9FA285503E0012000F0A4FA2855601C28
:101D1000C4B2B442EFDB00F0E0F9BDE8F08170B589
:101D200005460C4600F0B9F9EE2000F068FA00F024
:101D3000F5F9284600F063FA00F0F0F9204600F0CB
:101D40005EFA00F0EBF900F0C8F970BD08B50222A8
:101D50006946AA20FFF7B5FF9DF801009DF8001025
:101D600040EA012000B2B049088002226946AC2056
:101D7000FFF7A7FF9DF801009DF8001040EA012041
:101D800000B2AA49088002226946AE20FFF799FFF7
:101D90009DF801009DF8001040EA012000B2A4491E
:101DA000088002226946B020FFF78BFF9DF80100F2
:101DB0009DF8001040EA01209E49088002226946F1
:101DC000B220FFF77EFF9DF801009DF8001040EA69
:101DD00001209949088002226946B420FFF771FF6B
:101DE0009DF801009DF8001040EA01209349088009
:101DF00002226946B620FFF764FF9DF801009DF8B6
:101E0000001040EA012000B28D4908800222694694
:101E1000B820FFF756FF9DF801009DF8001040EA3A
:101E2000012000B28749088002226946BA20FFF7E4
:101E300048FF9DF801009DF8001040EA012000B223
:101E40008149088002226946BC20FFF73AFF9DF8CD
:101E500001009DF8001040EA012000B27B49088093
:101E600002226946BE20FFF72CFF9DF801009DF875
:101E7000001040EA012000B27549088008BD2DE934
:101E8000F04F89B04FF00008FFF760FF2E21F420DB
:101E9000FFF745FFFFF70EFF022203A9F620FFF729
:101EA00010FF9DF80D009DF80C1040EA01200690EF
:101EB000342000EB8811F420FFF731FFFFF7FAFE22
:101EC000032203A9F620FFF7FCFE9DF80C00000496
:101ED0009DF80D1000EB01209DF80E100844C8F18C
:101EE000080108410790554909880698401A524947
:101EF00009884843C4135548B0F90000C00254494A
:101F0000B1F90010214490FBF1F604EB060B0BF144
:101F100008006421484300110590059804F0D0FCA6
:101F200000904C480168009804F02AFD029049484E
:101F300001684FF07E5004F021FE00904648016891
:101F4000009804F01DFD0190029904F06DFB4249D8
:101F500008600846006804F097FC40490860ABF54B
:101F60007A6707FB07F000133649B1F900104843C0
:101F7000C4122E48B0F900007843C61204EB060ADA
:101F80002949B1F900100AEB810101FA08F1881C16
:101F9000C11700EB9171891008912548B0F9000034
:101FA0007843441307FB07F000132549B1F90010EB
:101FB00048430614A019801C4FEAA00A1D48008857
:101FC0000AF500414843C00B0490DDE90701401ABF
:101FD0004CF2503141FA08F100FB01F9B9F1004F20
:101FE00005D24FEA49010498B1FBF0F503E00498EB
:101FF000B9FBF0F04500281200FB00F440F6DE309B
:1020000060430414164868430614A01900F6CF6014
:1020100005EB2015642068431249086009B0BDE84B
:10202000F08F0000400D0300DC000020DE000020E7
:10203000E0000020E2000020E4000020E600002094
:10204000E8000020EA000020EC000020EE00002064
:10205000F00000200801002004010020F40000200E
:1020600043E3FFFFF800002008B50121102001F034
:10207000FBFE4FF44060ADF8000010208DF8030027
:1020800003208DF8020069468B4801F031FC4FF4C3
:102090004061894801F0D9FC08BD10B58648406808
:1020A00020F47040844948600846406840F440503D
:1020B00048600120814908608149C1F8A8010420D5
:1020C00001F00DFA00207D490860042001F007FAB4
:1020D00000207B49C1F8A80110BD10B576484068C2
:1020E00020F47040744948600846406840F440500D
:1020F000486000207149091F08607149C1F8AC01AE
:10210000042001F0ECF901206C49091F08606C49BA
:10211000C1F8AC01042001F0E2F910BD10B50024B3
:102120006548406820F4704063494860084640684C
:1021300040F40040486001206049086001F0CFF998
:1021400001205F49C1F8A80101F0C9F907E0601C4E
:10215000C4B2FA2C03DDFFF7C0FF012010BD5748C1
:10216000803800680028F2D15449091F086000BF78
:10217000F4E710B500205149091F08604E48406837
:1021800020F470404C4948600846406840F4405094
:10219000486000204A49C1F8AC01022001F09FF9D3
:1021A00001204649091F0860022001F098F900202B
:1021B0004349C1F8A80110BD10B500203F49091FCF
:1021C00008603D48406820F470403B49486008463C
:1021D000406840F44050486001203949C1F8AC01E2
:1021E000022001F07CF901203449091F0860022017
:1021F00001F075F900203249C1F8A80110BD70B591
:1022000004462D48406820F470402B494860084639
:10221000406840F44050486000202849091F086089
:10222000002514E0E009254908606006040E02203C
:1022300001F055F901202249C1F8A801022001F05E
:102240004EF900201D49091F0860681CC5B2082D01
:10225000E8DB70BD70B5054600241748406820F4DF
:102260007040154948600846406840F400404860A6
:10227000002617E000201149091F0860022001F024
:102280002EF901200E49C1F8A8016006040E0B4882
:102290008038006808B1601CC4B2012001F01FF949
:1022A000701CC6B2082EE5DB15B9FFF785FF01E00B
:1022B000FFF75FFF204670BD00100140AC012242D5
:1022C0000000224200B587B0012141F2040001F074
:1022D000CBFDE020ADF8180001208DF81A00182081
:1022E0008DF81B0006A9284801F002FB1020ADF86C
:1022F000180001208DF81A0010208DF81B0006A987
:10230000214801F0F5FA10211F4801F09EFB002042
:10231000ADF804004FF48270ADF806000020ADF86F
:102320000800ADF80A00ADF80C004FF40070ADF8ED
:102330000E001020ADF810000020ADF812000720AC
:10234000ADF8140001A9114802F01CF801210F4852
:1023500002F0BDF807B000BD10B500BF02210B4868
:1023600002F039F90028F9D0FF21084802F0E0F81E
:1023700000BF0121054802F02EF90028F9D00348DA
:1023800002F0D8F8C0B210BD000801400030014092
:1023900000B587B001214FF4017001F065FD4FF4E5
:1023A000004001F0C5FC0220ADF8040000208DF8CB
:1023B000070001A92E4801F09BFA2E4803F0BEF851
:1023C000002002908DF80C008DF80D004FF4602075
:1023D00004900020059001208DF8180002A92548DE
:1023E00003F0D3F80121234803F0FBF8214803F060
:1023F0001AF900BF1F4803F01BF90028FAD11D4845
:1024000003F020F900BF1B4803F021F90028FAD19E
:1024100007B000BD10B50446072301222146154828
:1024200003F04BF90121134803F01BF900BF02210F
:10243000104803F087FA0028F9D00E4803F0A4F9F9
:1024400010BD2DE9F04107460C460025002608E0A6
:102450003846FFF7DFFF0544052001F064F8701CE3
:10246000C6B2A642F4DBB5FBF4F080B2BDE8F08161
:10247000000801400024014008B50B49086801210B
:1024800001F0F2FC0820ADF8000010208DF80300E8
:1024900003208DF802006946044801F029FA08215A
:1024A000024801F0D2FA08BD8C0121420008014027
:1024B00008B50121882001F0D7FC10208DF8030019
:1024C00003208DF802004FF43040ADF8000069465B
:1024D000FE4801F00DFA4FF48040ADF800004820AE
:1024E0008DF803006946F94801F002FA08BD2DE9AC
:1024F000F04107464FF48051F44801F0A6FA4FF43A
:102500000051F24801F0A3FA4FF48051EF4801F076
:102510009EFA8026002420E04FF40051EB4801F0A1
:1025200094FA07EA060028B14FF40041E74801F0A9
:102530008CFA04E04FF40041E44801F088FA761088
:10254000012000F0CCFF4FF40051E04801F07FFA89
:10255000012000F0C4FF601CC4B2082CDCDB0320A7
:1025600000F0BDFF0025002417E06D004FF400517E
:10257000D64801F06AFA4FF48041D44801F04BFA92
:1025800008B145F001054FF40051D04801F05FFA61
:10259000012000F0A4FF601CC4B2182CE5DB4FF44E
:1025A0008051CA4801F051FA022000F098FF2846F5
:1025B000BDE8F0812DE9F04105460F464FF480510A
:1025C000C24801F042FA4FF40051C04801F03FFA0E
:1025D0004FF48051BD4801F03AFA45F080054FF0C4
:1025E0008008002421E04FF40051B84801F02DFA92
:1025F00005EA080028B14FF40041B44801F025FA7B
:1026000004E04FF40041B14801F021FA4FEA6808B4
:10261000012000F064FF4FF40051AC4801F017FABC
:10262000012000F05CFF601CC4B2082CDBDB03203F
:1026300000F055FF4FF40006002420E007EA0600F2
:1026400028B14FF40041A14801F0FFF904E04FF434
:1026500000419E4801F0FBF94FF400519B4801F006
:10266000F4F9012000F03BFF4FF40051974801F0CE
:10267000EEF9012000F033FF7608601CC4B2182C7C
:10268000DCDB4FF48051914801F0DFF9022000F0CB
:1026900026FFBDE8F08110B50021D320FFF78AFFA7
:1026A000022000F01CFF0021C320FFF783FF5A2106
:1026B000C920FFF77FFF4BF67E110120FFF77AFF5D
:1026C0004FF684010320FFF775FF4FF400710220DD
:1026D000FFF770FF43F237413120FFF76BFF4FF4F4
:1026E0007F416D20FFF766FF40F6B8516E20FFF77F
:1026F00061FF4DF2DA116F20FFF75CFF40F27111BC
:102700001E20FFF757FF47F670511720FFF752FFC3
:1027100047F670511820FFF74DFF47F6705119200A
:10272000FFF748FF4FF281511A20FFF743FF4FF2A6
:1027300081511B20FFF73EFF4FF239411C20FFF76C
:1027400039FF4BF693010420FFF734FF4BF693015A
:102750000720FFF72FFF4BF693010A20FFF72AFF10
:102760004BF693010520FFF725FF4BF69301082058
:10277000FFF720FF4BF693010B20FFF71BFF4BF2F7
:102780000A710620FFF716FF4BF20A710920FFF7C6
:1027900011FF4BF20A710C20FFF70CFF40F60F01FE
:1027A0003520FFF707FF0221C520FFF703FF0021B7
:1027B000C920FFF7FFFE0021C620FFF7FBFE002027
:1027C000FFF795FE4249086010BD10B5FFF770FE97
:1027D000FFF761FF0020FFF78AFE3D490860642093
:1027E00000F07DFE10BD00B5A3B0002022901D902A
:1027F0001C901B901A901990189017901690159095
:10280000149013901290119010900F900E900D90C4
:102810000C900B900A900990089007900690FFF793
:1028200066FE2190642000F05AFE2949219809682B
:10283000884207D0FFF72FFF4FF4FA7000F073FEC5
:1028400023B000BD0D20FFF752FE1D90642000F064
:1028500046FE1020FFF74BFE1C90642000F03FFE68
:102860000120FFF744FE1B90642000F038FE052095
:10287000FFF73DFE1A90642000F031FE0920FFF7BB
:1028800036FE1990642000F02AFE1D98C0F34730F0
:10289000104908701C9804F02BF84FF08C41009000
:1028A00003F030FF019003F093FE0B4A0B4BCDE990
:1028B000020103F083FACDE9040103F099F9084914
:1028C00008600849064800680EE00000000C01405E
:1028D0001001002014010020CDCCCCCCCCCC334056
:1028E0001801002000007A4404F04AF8FE4908600C
:1028F000642000F0F4FD1420FFF7F9FD059003F0CB
:10290000F7FFFA4908604FF09641F848006804F074
:1029100003F90DD2F54801684FF0974004F02EF905
:102920004FF09641059003F0EDFEF049086007E096
:102930004FF09641ED48006803F0E4FEEB49086073
:102940001B98B0F5000F11D91B98C0F18070019051
:1029500003F0D0FBE64AE74BCDE9020103F01AFC95
:10296000CDE9040103F044F918900DE01B9803F041
:10297000C1FBDF4ADF4BCDE9020103F00BFCCDE9DF
:10298000040103F035F918901A98B0F5000F11D929
:102990001A98C0F18070019003F0ACFBD44AD54B7B
:1029A000CDE9020103F0F6FBCDE9040103F020F9C3
:1029B00017900DE01A9803F09DFBCD4ACD4BCDE961
:1029C000020103F0E7FBCDE9040103F011F91790D0
:1029D0001998B0F5000F11D91998C0F180700190C5
:1029E00003F088FBC24AC34BCDE9020103F0D2FBDE
:1029F000CDE9040103F0FCF816900DE0199803F0FE
:102A000079FBBB4ABB4BCDE9020103F0C3FBCDE927
:102A1000040103F0EDF81690B7480078B749086054
:102A2000B748008803F064FF0090AF480168009841
:102A300003F0A6FF019003F0CBFD0022B14BCDE9DE
:102A4000020103F007F9CDE9040103F00FFBAE49E1
:102A50000860AB48008803F04BFF0090189903F022
:102A60008FFF019003F0B4FD0022A64BCDE90201D7
:102A700003F0F0F8CDE9040103F0F8FAA349086087
:102A80009F48008803F034FF0090179903F078FF07
:102A9000019003F09DFD00229A4BCDE9020103F065
:102AA000D9F8CDE9040103F0E1FA994908609448A6
:102AB000008803F01DFF0090169903F061FF01905C
:102AC00003F086FD00228F4BCDE9020103F0C2F82E
:102AD000CDE9040103F0CAFA1E900E20FFF707FDAE
:102AE0001590642000F0FBFC1120FFF700FD14900E
:102AF000642000F0F4FC0220FFF7F9FC139064203E
:102B000000F0EDFC0620FFF7F2FC1290642000F0CC
:102B1000E6FC0A20FFF7EBFC11901598C0F3473054
:102B20007C490870149803F0E3FE4FF08C4100904C
:102B300003F0E8FD019003F04BFD774A774BCDE9B8
:102B4000020103F03BF9CDE9040103F051F87449A7
:102B50000860642000F0C3FC1520FFF7C8FC059056
:102B600003F0C6FE6F4908604FF096416D4800685B
:102B700003F0D2FF0DD26B4801684FF0974003F08D
:102B8000FDFF4FF09641059003F0BCFD65490860DC
:102B900007E04FF096416348006803F0B3FD6149D8
:102BA00008601398B0F5000F11D91398C0F1807028
:102BB000019003F09FFA4E4A4E4BCDE9020103F01B
:102BC000E9FACDE9040103F013F810900DE0139831
:102BD00003F090FA464A474BCDE9020103F0DAFAD6
:102BE000CDE9040103F004F810901298B0F5000F3D
:102BF00011D91298C0F18070019003F07BFA3C4A21
:102C00003C4BCDE9020103F0C5FACDE9040102F025
:102C1000EFFF0F900DE0129803F06CFA344A354B39
:102C2000CDE9020103F0B6FACDE9040102F0E0FFBC
:102C30000F901198B0F5000F11D91198C0F1807064
:102C4000019003F057FA2A4A2A4BCDE9020103F01A
:102C5000A1FACDE9040102F0CBFF0E900DE011982E
:102C600003F048FA224A234BCDE9020103F092FA1D
:102C7000CDE9040102F0BCFF0E90264800782A49F5
:102C800008601F48008803F033FE00902448016864
:102C9000009803F075FE019003F09AFC0022194B96
:102CA000CDE9020102F0D6FFCDE9040103F0DEF91F
:102CB0001E4908601248008803F01AFE009010991F
:102CC00003F05EFE019003F083FC00220D4BCDE982
:102CD000020102F0BFFFCDE9040103F0C7F9144976
:102CE00008600748008825E0180100201C0100202A
:102CF000F697DD9387859A3F14010020200100207C
:102D0000740100200000E03F240100202C0100207D
:102D10003001002034010020CDCCCCCCCCCC3340D1
:102D2000380100203C010020400100204401002027
:102D30004C01002003F0DCFD00900F9903F020FE11
:102D4000019003F045FC0022AC4BCDE9020102F0FA
:102D500081FFCDE9040103F089F9A9490860A94878
:102D6000008803F0C5FD00900E9903F009FE019064
:102D700003F02EFC0022A14BCDE9020102F06AFF14
:102D8000CDE9040103F072F91F900F20FFF7AFFBAC
:102D90000D90642000F0A3FB1220FFF7A8FB0C901D
:102DA000642000F09CFB0320FFF7A1FB0B90642044
:102DB00000F095FB0720FFF79AFB0A90642000F0D3
:102DC0008EFB0B20FFF793FB09900D98C0F3473063
:102DD0008D4908700C9803F08BFD4FF08C410090EA
:102DE00003F090FC019003F0F3FB884A884BCDE997
:102DF000020102F0E3FFCDE9040102F0F9FE85498A
:102E00000860642000F06BFB1620FFF770FB059054
:102E100003F06EFD804908604FF096417E480068DF
:102E200003F07AFE0DD27C4801684FF0974003F022
:102E3000A5FE4FF09641059003F064FC76490860CA
:102E400007E04FF096417448006803F05BFC72495C
:102E500008600B98B0F5000F11D90B98C0F1807085
:102E6000019003F047F96D4A6D4BCDE9020103F083
:102E700091F9CDE9040102F0BBFE08900DE00B983A
:102E800003F038F9654A664BCDE9020103F082F997
:102E9000CDE9040102F0ACFE08900A98B0F5000FED
:102EA00011D90A98C0F18070019003F023F95B4AB0
:102EB0005B4BCDE9020103F06DF9CDE9040102F0AD
:102EC00097FE07900DE00A9803F014F9534A544B0B
:102ED000CDE9020103F05EF9CDE9040102F088FEBC
:102EE00007900998B0F5000F11D90998C0F18070CA
:102EF000019003F0FFF8494A494BCDE9020103F084
:102F000049F9CDE9040102F073FE06900DE009983D
:102F100003F0F0F8414A424BCDE9020103F03AF9DF
:102F2000CDE9040102F064FE06902298D0B1382069
:102F3000FFF7DDFA3B490860642000F0D0FA394819
:102F40000068103040092F490988374A126800FB91
:102F5000012035490860084600686421B0FBF1F0A3
:102F600032490860284800783149086025480088BF
:102F700003F0BEFC009027480168009803F000FDB4
:102F8000019003F025FB00221C4BCDE9020102F069
:102F900061FECDE9040103F069F82649086019488B
:102FA000008803F0A5FC0090089903F0E9FC01906B
:102FB00003F00EFB0022114BCDE9020102F04AFEA4
:102FC000CDE9040103F052F81B4908600D48008860
:102FD00003F08EFC0090069903F0D2FC019003F000
:102FE000F7FA0022054BCDE9020102F033FECDE9EC
:102FF000040103F03BF8209000BF21E40000E03F13
:10300000500100207401002054010020CDCCCCCC14
:10301000CCCC3340580100205C010020F697DD93B2
:1030200087859A3F780100207C0100200C01002058
:1030300060010020640100206C01002010B50446EE
:10304000CA48008800F4004070B10020C7490988D0
:10305000C1F30E01C64A50541146C6A002F096FCB8
:1030600014B10020C149088010BD70B50446002588
:10307000BE48008800F4004070B10020BB490988B8
:10308000C1F30E01BA4A50542146104602F0E7FC43
:1030900005460020B5490880284670BD70B5044635
:1030A0000025B248008800F4004070B10020AF490C
:1030B0000988C1F30E01AE4A50542146104602F071
:1030C000CEFC05460020A9490880284670BD10B5F1
:1030D00090B004464022A849684602F0DEFC214632
:1030E000684602F0CEFCA5A1684602F0CAFCA448DE
:1030F000007830B96946A3A002F048FC0120A0493D
:103100000870002010B010BD70B504460D460026B2
:103110009B48007838B921469AA002F037FC01207C
:103120009749087014E02846FFF79FFF30B1012649
:103130000020934908709549087009E09348007889
:10314000012805D100208E4908709049087000269A
:10315000304670BD30B5ADF5177D04460D464FF4D1
:1031600016728549403101A802F097FC214601A85A
:1031700002F087FC86A101A802F083FC294601A881
:1031800002F07FFC83A101A8FFF7BEFF01200DF52F
:10319000177D30BDF0B503460D46164600210022CE
:1031A000002413B1002D00DD16B94FF0FF30F0BD43
:1031B00000211DE05A5C392A02DCA2F1300001E056
:1031C000A2F13700C2B2481C1C5C392C02D8A4F111
:1031D000300001E0A4F137000446274662F31F17D0
:1031E000084601EBD07C4FEA6C0C06F80C70891C89
:1031F000A942DFDB0020DAE7F0B5034600201EE03D
:103200000E5CF71706EB17773F1107F130050E5CE0
:10321000F71706EB17773F11A6EB07173037FCB20D
:10322000392D01DDEE1DF5B2392C01DDE61DF4B2BC
:1032300003F81050012606EB40069C55401C9042B6
:10324000DEDB002603F81260F0BDF0B5044615463B
:1032500000201EE0265C3211265C06F00F0330329F
:10326000392A03DDD61D01F8106001E001F81020B5
:1032700003F13006F3B2392B05DDDE1D012707EB24
:103280004007CE5503E0012606EB40068B55461C51
:1032900030B2A842DEDBF0BD10B504460D2C5ED284
:1032A000DFE804F0070E151C232A315D3A41484F30
:1032B000560038A138A0FFF727FF00B1012452E0E3
:1032C00034A136A0FFF720FF00B102244BE031A16A
:1032D00035A0FFF719FF00B1032444E02DA136A06B
:1032E000FFF712FF00B104243DE02AA136A0FFF74A
:1032F0000BFF00B1052436E026A136A0FFF704FF3E
:1033000000B106242FE037A139A0FFF7FDFE08B178
:10331000072400E0082426E01EA138A0FFF7F4FEF1
:1033200000B109241FE01BA137A0FFF7EDFE00B19B
:103330000A2418E017A137A0FFF7E6FE00B10B241E
:1033400011E014A120A0FFF7DFFE00B10C2400BFA4
:1033500010A138A0FFF7D8FE00B10D2400BF002057
:103360000249088000BF00BF204610BDB000002009
:10337000780C002025730000D46C00082C3100006C
:10338000AC00002025730D0A00000000AD000020F5
:103390002C0000004F4B00004154000041542B43CF
:1033A0004D45453D310D0A0041542B4E42414E449E
:1033B0003D350D0A0000000041542B4E434F4E4650
:1033C00049473F0D0A00000041542B4346554E3DEE
:1033D000310D0A0041542B43474154543D310D0AED
:1033E000000000002B4353513A39392C3939000081
:1033F00041542B4353510D0A0000000041542B4E01
:10340000534D493D310D0A0041542B4E4E4D493D1F
:10341000320D0A0041542B4E4344503D3133392E76
:103420003135392E3134302E33342C353638330D96
:103430000A00000041542B4E4E4D493D310D0A000B
:1034400008B50121082000F00FFD14208DF80300BD
:1034500003208DF802004FF40070ADF800006946BB
:10346000114800F045FA4FF400710F4800F0EDFAF2
:103470004FF48060ADF8000069460B4800F038FA60
:103480004FF48061084800F0E0FA4FF40060ADF8B6
:1034900000006946044800F02BFA4FF4006102482E
:1034A00000F0D3FA08BD0000000C014010B56FF029
:1034B000040001F016F92E4800682E49B0FBF1F027
:1034C0002D4908700846007800EB4001C1EBC010A0
:1034D0004FF6FF7101EAC0002849088010BD01467F
:1034E000254A12784A434FF0E0235A6100229A613C
:1034F0001A46126942F001021A6100BF4FF0E02241
:10350000106900F001021AB100F48032002AF5D0EF
:103510004FF0E022126922F001024FF0E0231A611D
:1035200000229A6170470146144A12884A434FF0BC
:10353000E0235A6100229A611A46126942F00102A0
:103540001A6100BF4FF0E022106900F001021AB1C9
:1035500000F48032002AF5D04FF0E022126922F008
:1035600001024FF0E0231A6100229A6170470000C7
:10357000C400002000127A00820100208401002093
:10358000014600BF704700BF8F4A128802F0400218
:10359000002AF9D0C2B28C4B1B1D1A80704710B59F
:1035A00086B00446012144F2040000F05DFC4FF4B3
:1035B0000070ADF8140003208DF8160018208DF867
:1035C000170005A9814800F093F94FF48060ADF829
:1035D000140004208DF8170005A97C4800F088F934
:1035E00025208DF8000003208DF801008DF80200E1
:1035F00001208DF80300684601F029F801940020AD
:10360000ADF80800ADF80A00ADF80C00ADF81000F8
:103610000C20ADF80E0001A96B4800F0CCFC012293
:1036200040F22551684800F05EFD0121664800F037
:103630004EFD06B010BD10B5044644B100216448EB
:1036400001F032FF0121624801F09AFC03E0002101
:103650005F4801F095FC10BD10B540F225515A4865
:1036600000F026FE00B3584800F0A2FDC4B259484D
:103670000088C82812DA0021554801F015FF554886
:10368000008810B90120FFF7D6FF52480188008852
:10369000401C504A10805048445405E04D48008872
:1036A00040F400404B49088010BD10B5044600218D
:1036B000474801F0F9FE46482C3000880020444974
:1036C0002C310880084600882043088010BD10B5C2
:1036D00001213F4801F01DFF10B301213C4801F0DA
:1036E00029FF3E480078E0B13D480078401C3C4945
:1036F0000870084600783949097888421AD10020B4
:1037000037490870354908703248008840F4004055
:10371000304908800020FFF78EFF6320FFF7C5FFC8
:1037200008E02C48008840F400402A490880002026
:10373000FFF781FF10BD7FB505460C46012104202F
:1037400000F09FFBADF80450ADF800400020ADF84C
:103750000600ADF8020069461D4801F0B5F80122E7
:1037600011461B4801F027FC1E208DF80C0001209B
:103770008DF80D0002208DF80E0001208DF80F004D
:1037800003A800F064FF7FBD70B504460D461548E0
:103790000078204413490870134814490988445498
:1037A00012480088401C1149088008460088C82833
:1037B00001D1002008802DB1012240F2277102487A
:1037C00000F091FC70BD000000380140000801408D
:1037D00000080040B0000020780C00208E0100207E
:1037E0009601002089010020E80A00208C010020B9
:1037F0000948804709480047FEE7FEE7FEE7FEE785
:10380000FEE7FEE7FEE7FEE7FEE7FEE704480549C0
:10381000054A064B70470000E71100083101000817
:10382000A00D0020A0130020A00F0020A00F00205A
:1038300010B50446CC48844208D10121042000F090
:103840002DFB0021042000F029FB46E0C7488442FC
:1038500008D10121082000F021FB0021082000F000
:103860001DFB3AE0C248844208D10121102000F03B
:1038700015FB0021102000F011FB2EE0BD48844212
:1038800008D10121202000F009FB0021202000F0B8
:1038900005FB22E0B848844208D10121402000F015
:1038A000FDFA0021402000F0F9FA16E0B348844206
:1038B00008D10121802000F0F1FA0021802000F0E1
:1038C000EDFA0AE0AE48844207D10121801500F0EC
:1038D000E5FA0021A01500F0E1FA10BD10B50121B4
:1038E000084600F0DBFA0021012000F0D7FA10BDF5
:1038F0002DE9F04102460025002600200023002487
:10390000002791F803C00CF00F0591F803C00CF0EC
:10391000100CBCF1000F03D091F802C04CEA050571
:1039200091F800C0BCF1000F31D0146800202BE0EA
:103930004FF0010C0CFA00F3B1F800C00CEA0306DA
:103940009E4220D183004FF00F0C0CFA03F7BC43CA
:1039500005FA03FC4CEA040491F803C0BCF1280FFB
:1039600006D14FF0010C0CFA00FCC2F814C00AE0BA
:1039700091F803C0BCF1480F05D14FF0010C0CFACF
:1039800000FCC2F810C0401C0828D1D31460B1F864
:1039900000C0BCF1FF0F34DD546800202EE000F1C0
:1039A000080C4FF0010808FA0CF3B1F800C00CEA5B
:1039B00003069E4221D183004FF00F0C0CFA03F74F
:1039C000BC4305FA03FC4CEA040491F803C0BCF1C3
:1039D000280F05D100F1080C08FA0CF8C2F8148081
:1039E00091F803C0BCF1480F07D100F1080C4FF06B
:1039F000010808FA0CF8C2F81080401C0828CED341
:103A00005460BDE8F0814FF6FF71018002218170A2
:103A10000421C17070470246002093680B400BB12F
:103A2000012000E0002070470146886880B270479E
:103A300002460020D3680B400BB1012000E00020BB
:103A400070470146C86880B27047016170474161A4
:103A500070470AB1016100E041617047C160704781
:103A60004FF480320A438261816182618269826996
:103A7000704702460020434B18684FF68073184089
:103A800040EA021008433F4B186070473E49C86146
:103A90007047F0B50A46002300240021002500F0FD
:103AA0000046B6F1004F02D1364EF16901E0354EC5
:103AB0007168C0F3034583B200F44016B6F5401FA9
:103AC00008D121F070612F4E766826F070662D4F78
:103AD0007E6012E000F48016B6F5801F06D1032642
:103AE00006FA05F4A14341F0706106E0460D360187
:103AF00003FA06F6B14341F0706122B1460D36017A
:103B000003FA06F6314300F00046B6F1004F02D149
:103B10001C4EF16101E01B4E7160F0BD30B500221A
:103B20008B071C0F0F2303FA04F2164B08338C107B
:103B300053F824309343134C08348D1044F8253047
:103B400023468C1053F824308C07240F00FA04F419
:103B500023430C4C08348D1044F8253030BD0A49FD
:103B6000DC3108607047000000080140000C014093
:103B7000001001400014014000180140001C0140E9
:103B8000002001400000014000002042DF480068A2
:103B900040F00100DD49086008464068DC49084003
:103BA000DA49486008460068DA490840D7490860A1
:103BB0000846006820F4802008600846406820F429
:103BC000FE0048604FF41F0088607047CF490968C5
:103BD00021F48031CD4A11601146096821F4802119
:103BE0001160B0F5803F03D0B0F5802F0ED106E014
:103BF000C649096841F48031C44A116007E0C349ED
:103C0000096841F4A021C14A116000E000BF00BF73
:103C1000704710B501460022002300204A11012AF6
:103C200002D1BA4C236806E0022A02D1B74C236ABB
:103C300001E0B64C636A01F01F02012494401C406D
:103C40000CB1012000E0002010BD38B5002000902C
:103C50000024002500BF3120FFF7DBFF0546009858
:103C6000401C00900098B0F5A06F01D0002DF2D05C
:103C70003120FFF7CEFF08B1012400E000242046E8
:103C800038BD01460020A14A106820F0F80040EA43
:103C9000C10010607047A0490860704702460020CC
:103CA0009A4B586820F47C1042EA01031843974B62
:103CB0005860704798490866704701460020934A4B
:103CC000506820F003000843506070478F484068F8
:103CD00000F00C007047014600208C4A506820F02C
:103CE000F00008435060704701460020874A506842
:103CF00020F4E06008435060704701460020834A8A
:103D0000506820F4605040EAC1005060704729B10B
:103D10007E4A527A02437D4B5A7204E07B4A527AC1
:103D200082437A4B5A7270477B49D831086070479A
:103D300001460020754A506820F440400843506016
:103D400070470021714A20321170704A82F82010A9
:103D5000012802D004280AD104E001216B4A203254
:103D6000117005E00521694A2032117000E000BFA2
:103D700000BF70476949086070476449096A014398
:103D8000624A11627047654944390860704730B52E
:103D900000210022002400235C4D6D6805F00C0119
:103DA00021B1042905D0082923D105E05C4D056027
:103DB00022E05B4D05601FE0544D6D6805F4701204
:103DC000524D6D6805F48034022505EB92421CB912
:103DD000544D554305600BE04C4D6D6805F40035BE
:103DE0001DB1504D5543056002E04D4D55430560F2
:103DF00002E04B4D056000BF00BF444D6D6805F00B
:103E0000F0010909484D6B5C0568DD4045603F4D98
:103E10006D6805F4E061090A434D6B5C4568DD405F
:103E200085603A4D6D6805F46051C90A3E4D6B5C82
:103E30004568DD40C560354D6D6805F44041890B2E
:103E40003A4D6B5CC568B5FBF3F5056130BD29B132
:103E50002E4A526902432D4B5A6104E02B4A5269A3
:103E600082432A4B5A61704729B1284A926902431A
:103E7000264B9A6104E0254A92698243234B9A615A
:103E8000704729B1214AD2690243204BDA6104E02C
:103E90001E4AD26982431D4BDA61704729B11B4A21
:103EA000D2680243194BDA6004E0184AD2688243B0
:103EB000164BDA60704729B1144A12690243134B5A
:103EC0001A6104E0114A12698243104B1A6170476B
:103ED00012494039086070470F49C86470470B4960
:103EE000C87170470948406A40F0807007494862CD
:103EF000704701460020054A92680A400AB1012035
:103F000000E00020704701498872704700100240AD
:103F10000000FFF8FFFFF6FE00004242800442422C
:103F200000127A0000093D0097010020A70100203F
:103F300010B50446FB48844209D101218803FFF7EC
:103F4000ADFF00214FF48040FFF7A8FF32E0F648B4
:103F5000844209D101214804FFF7ADFF00214FF44D
:103F60000030FFF7A8FF25E0F048844209D1012185
:103F70008804FFF7A0FF00214FF48020FFF79BFF8C
:103F800018E0EB48844209D10121C804FFF793FFF0
:103F900000214FF40020FFF78EFF0BE0E54884423C
:103FA00008D101210805FFF786FF00214FF480109A
:103FB000FFF781FF10BD2DE9F04786B005460E469C
:103FC0000024A24600BFA1460027B08900B100BF6F
:103FD0002F462C8A4CF6FF700440F08804432C8254
:103FE000AC894EF6F3100440B088318908437189DA
:103FF00008430443AC81AC8A4FF6FF400440B089CB
:104000000443AC8201A8FFF7C2FEC648874202D132
:10401000DDF810A001E0DDF80CA0A88900F4004054
:1040200040B10AEBCA0000EB0A1031684900B0FB4E
:10403000F1F807E00AEBCA0000EB0A1031688900CA
:10404000B0FBF1F86420B8FBF0F004012009642112
:1040500001FB1089A88900F4004040B1322000EB38
:10406000C900B0FBF1F000F00700044308E0322083
:1040700000EB09106421B0FBF1F000F00F000443E5
:104080002C8106B0BDE8F0874FF416510160002185
:104090008180C18001810C21418100218181704793
:1040A00010B502460020108A4FF2FF0318400B881B
:1040B0004C8823438C882343CC88234318431082A5
:1040C00010BD0021018041808180C180704721B1F5
:1040D000828942F40052828104E082894DF6FF73A6
:1040E0001A4082817047F0B503460024002600255F
:1040F000002040F66A17B94200D100BF1846C1F34C
:10410000421401F01F06012707FA06F5012C01D120
:104110000C3004E0022C01D1103000E014301AB150
:1041200007682F43076002E00768AF430760F0BDF0
:104130001AB1838A0B43838202E0838A8B43838292
:104140007047028A4FF6F0731A400282028A0A43CD
:104150000282704782894FF2FF731A4082818289FE
:104160000A438281704721B1828942F00202828132
:1041700004E082894FF6FD731A4082817047028AFB
:104180004FF6DF731A400282028A0A4302827047A6
:1041900021B1028A42F48042028204E0028A4BF694
:1041A000FF731A4002827047C1F308028280704791
:1041B00001468888C0F308007047818941F00101F9
:1041C00081817047028BD2B20283028B42EA0122C4
:1041D00002837047028B02F47F420283028B0A4300
:1041E0000283704721B1828A42F02002828204E079
:1041F000828A4FF6DF731A408282704721B1828A29
:1042000042F01002828204E0828A4FF6EF731A4075
:104210008282704721B1828A42F00802828204E0E1
:10422000828A4FF6F7731A408282704721B18289E1
:1042300042F40042828103E08289C2F30E0282814D
:10424000704721B1828A42F40062828204E0828A4D
:104250004FF2FF731A4082827047828A4FF6FB73D7
:104260001A408282828A0A438282704721B1828AFE
:1042700042F00202828204E0828A4FF6FD731A4005
:104280008282704702460020B1F5007F00D100BF56
:1042900013880B400BB1012000E00020704701F4AF
:1042A0000072B2F5007F00D100BFCA4302807047A0
:1042B00070B50246002400230025002040F66A164F
:1042C000B14200D100BFC1F3421501F01F03012626
:1042D00006FA03F3012D02D19689334006E0022D40
:1042E00002D1168A334001E0968A33400C1201262F
:1042F00006FA04F41688344013B10CB1012000E032
:10430000002070BD10B50022002340F66A14A142BF
:1043100000D100BF0A1201249440A3B2DC43048000
:1043200010BD00000038014000440040004800403B
:10433000004C00400050004010B50446BE48844286
:1043400008D101218014FFF7A9FD0021A014FFF777
:10435000A5FD16E0B948844208D101210014FFF7F9
:10436000AAFD00212014FFF7A6FD0AE0B44884420C
:1043700007D10121C013FFF79EFD0021E013FFF7D5
:104380009AFD10BD10B50022028802F441520B883C
:104390004C8823438C882343CC8823430C892343B4
:1043A0004C8923438C892343CC8923431A430280BD
:1043B000838B4FF2FF74234083830B8A038210BDEB
:1043C0002DE9F04F85B005460C464FF00009022755
:1043D0004FF000084FF0010B0026B246A88B4FF2B9
:1043E00040010840A88302202884B5F81C90A068EA
:1043F000022801D100BF38E0A08810B94FF0010BAE
:1044000001E04FF0020B8D48854200D100E000BF73
:104410006846FFF7BCFCDDF800A0E088B0F5007F3F
:104420000AD14FEA1A2000EB80004000A168B0FBDF
:10443000F1F0401D86B20BE04FEA4B10BAFBF0F0F2
:1044400000EB80004000A168B0FBF1F0401D86B297
:104450000A20B6FBF0F606F00108A6EB0800C0F350
:104460004F074FF6FF7000EA0828022F01DBFF2FED
:1044700002DD02274FF00008E08840EA08003843D8
:104480002884A088A18908436188084321880843BB
:1044900040F4006040EA0909A5F81C9005B0BDE8A9
:1044A000F08F0021018041808180C18001814181A4
:1044B0008181C181072101827047002101804180F3
:1044C0008180C1800221816000218181704721B1FA
:1044D000028842F04002028004E002884FF6BF7377
:1044E0001A400280704721B1828B42F4806282833D
:1044F00004E0828B4FF6FF331A408283704730B559
:10450000002400230C110125A540ABB21AB1858807
:104510001D43858002E085889D43858030BD1AB1AA
:1045200083880B43838002E083888B4383807047BA
:10453000818170470146888970474FF6FF6291423A
:1045400004D0028842F48072028004E002884FF6B0
:10455000FF631A400280704721B1828842F0040252
:10456000828004E082884FF6FB731A408280704795
:1045700002884FF2FF731A40028002880A430280C9
:104580007047018841F480510180704721B1028851
:1045900042F40052028004E002884DF6FF731A4094
:1045A0000280704702460020012901D0108B00E0F4
:1045B000908A70470146088A7047B1F5804F04D150
:1045C000028842F48042028004E002884BF6FF73C6
:1045D0001A40028070470246002013890B400BB13D
:1045E000012000E000207047CA4302817047F0B507
:1045F0000246002000240023002501F00F070126B9
:10460000BE40B4B20B1101269E40B3B2968806EAB2
:1046100003051689264016B10DB1012000E00020E7
:10462000F0BD10B5002201F00F040123A3409AB29F
:10463000D343038110BD000000300140003800402A
:10464000003C004031490143314A1160704770B568
:10465000002100230F22C47804B32D4C246804F4F5
:10466000E064C4F5E064210AC1F10403CA4044785F
:1046700004FA03F18478144021430901254C06789B
:10468000A155047804F01F050124AC4005786D1194
:10469000AD0005F1E025C5F8004109E0047804F01B
:1046A0001F050124AC401C4D0678761145F82640C4
:1046B00070BD1A4A0A400243154B1B1F1A6070470F
:1046C00039B1134A121D12680243114B1B1D1A60A7
:1046D00006E00F4A121D126882430D4B1B1D1A6023
:1046E0007047042808D14FF0E021096941F0040126
:1046F0004FF0E022116107E04FF0E021096921F05D
:1047000004014FF0E0221161704700000000FA053B
:104710000CED00E000E400E080E100E080FFFF1F1E
:1047200010B50446FE48844208D10121C014FFF7A9
:10473000B5FB0021E014FFF7B1FBC4E0B4F1804FFA
:1047400008D101210846FFF7B6FB00210120FFF741
:10475000B2FBB8E0F348844208D101210220FFF700
:10476000AAFB00210220FFF7A6FBACE0EE48844242
:1047700008D101210420FFF79EFB00210420FFF750
:104780009AFBA0E0E948844208D101210820FFF704
:1047900092FB00210820FFF78EFB94E0E44884425E
:1047A00008D101211020FFF786FB00211020FFF720
:1047B00082FB88E0DF48844208D101212020FFF7F6
:1047C0007AFB00212020FFF776FB7CE0DA48844268
:1047D00008D101214014FFF761FB00216014FFF7AD
:1047E0005DFB70E0D548844209D10121C804FFF780
:1047F00055FB00214FF40020FFF750FB63E0D04849
:10480000844209D101210805FFF748FB00214FF43C
:104810008010FFF743FB56E0CA48844209D10121CA
:104820004805FFF73BFB00214FF40010FFF736FB74
:1048300049E0C548844208D101214020FFF73BFBF5
:1048400000214020FFF737FB3DE0C048844208D1FB
:1048500001218020FFF72FFB00218020FFF72BFB99
:1048600031E0BB48844208D101218015FFF723FBCA
:104870000021A015FFF71FFB25E0B648844209D1AF
:1048800001210804FFF70AFB00214FF48030FFF7F5
:1048900005FB18E0B048844209D101214804FFF724
:1048A000FDFA00214FF40030FFF7F8FA0BE0AB48B7
:1048B000844208D101218804FFF7F0FA00214FF467
:1048C0008020FFF7EBFA10BD00220288944B98423B
:1048D0000ED0994B98420BD0B0F1804F08D0914B3D
:1048E000984205D0904B984202D0904B984204D108
:1048F0004FF68F731A404B881A438D4B984207D05E
:104900008C4B984204D04FF6FF431A40CB881A4391
:1049100002808B8883850B880385814B98420BD05E
:10492000854B984208D08B4B984205D08A4B9842D1
:1049300002D08A4B984201D10B7A038601238382ED
:10494000704770B5002400220023058C4FF6FE76D8
:1049500035400584028C8388048B4FF68F752C407C
:10496000B51E2C400D882C43751E2A400D892A4304
:104970004D882A436A4DA8420BD06F4DA84208D0FB
:10498000744DA84205D0744DA84202D0734DA84280
:1049900013D14FF6F7752A404D892A434FF6FB7520
:1049A0002A408D882A434FF6FF652B404FF6FF556E
:1049B0002B408D892B43CD892B4383800483CD8865
:1049C0008586028470BD70B5002400220023058C0A
:1049D0004FF6EF7635400584028C8388048B48F6C9
:1049E000FF752C404FF6FF452C400D884FF6FF76A3
:1049F00006EA05252C434FF6DF752A400D8906EAA5
:104A000005152A434D8806EA05152A43444DA84258
:104A100002D0494DA8421DD14FF67F752A404D89DD
:104A20004FF6FF7606EA05152A434FF6BF752A4072
:104A30008D8806EA05152A434FF6FF352B404FF2C5
:104A4000FF752B408D8906EA85052B43CD8906EA43
:104A500085052B4383800483CD880587028470BD40
:104A600070B5002400220023058C4FF6FF66354008
:104A70000584028C8388848B4FF68F752C404FF60B
:104A8000FC752C400D882C434FF6FF552A400D89AC
:104A90004FF6FF7606EA05252A434D8806EA0525E6
:104AA0002A431F4DA84202D0234DA8421DD14FF2E8
:104AB000FF752A404D894FF6FF7606EA05252A4301
:104AC0004FF6FF352A408D8806EA05252A434EF623
:104AD000FF752B404DF6FF752B408D8906EA0515B5
:104AE0002B43CD8906EA05152B4383808483CD882B
:104AF0008587028470BD70B5002200230024058CD8
:104B00004EF6FF7635400584038C8488828B48F608
:104B1000FF752A404FF6FF452A400D8820E000002F
:104B2000002C01400004004000080040000C004040
:104B3000001000400014004000340140004C0140CF
:104B4000005001400054014000180040001C00408B
:104B50000020004000400140004401400048014066
:104B60004FF6FF7606EA05252A434DF6FF752B40E2
:104B70000D8906EA05352B434D8806EA05352B439A
:104B8000FA4DA84202D0FA4DA84208D14BF6FF7563
:104B90002C408D894FF6FF7606EA85152C438480DC
:104BA0008283CD88A0F84050038470BD828B4FF281
:104BB000FF331A408283828B4FF6FF7303EA01238F
:104BC0001A4382837047F0B50C4615460022002137
:104BD0000026078C4EF6FF7C07EA0C070784828BC1
:104BE000018C4FF6FF7707EA043640F6FF473A405C
:104BF0004FF6FF7707EA05273A434FF6FF7707EAB4
:104C000003373A43D94FB8420ED0D94FB8420BD0F0
:104C1000B0F1804F08D0D74FB84205D0D64FB84238
:104C200002D0D64FB84206D14DF6FF77394046F450
:104C30008057394305E047F6FF57394044F4805721
:104C4000394382830184F0BD828B4FF6F3731A409F
:104C50008283828B0A4382837047F0B50C461546E7
:104C6000002200210026078C4FF6FF6C07EA0C0794
:104C70000784828B018C4FF6FF7707EA04264FF6F4
:104C80000C773A404FF6FF7707EA03172F433A4372
:104C9000B64FB8420ED0B64FB8420BD0B0F1804FED
:104CA00008D0B44FB84205D0B34FB84202D0B34F8A
:104CB000B84206D14FF6FF57394046F48077394362
:104CC00005E04FF2FF57394044F48077394382833F
:104CD0000184F0BD028B4FF2FF331A400283028B36
:104CE0004FF6FF7303EA01231A4302837047F0B5BE
:104CF0000C461546002200210026078C4FF6EF7C5B
:104D000007EA0C070784028B018C4FF6FF7707EA4E
:104D1000041640F6FF473A404FF6FF7707EA03379D
:104D20003A434FF6FF7707EA05273A438F4FB842D9
:104D30000ED08F4FB8420BD0B0F1804F08D08D4FBE
:104D4000B84205D08C4FB84202D08C4FB84206D141
:104D50004FF6DF77394046F01007394305E04FF64C
:104D60005F77394044F01007394302830184F0BD76
:104D7000028B4FF6F3731A400283028B0A430283BD
:104D80007047F0B50C46154600220021068C4FF600
:104D9000FE773E400684028B018C4FF60C76324043
:104DA0007E1C06EA03162E433243704EB0420ED0EC
:104DB0006F4EB0420BD0B0F1804F08D06D4EB04274
:104DC00005D06D4EB04202D06C4EB04206D14FF6C7
:104DD000FD76314044F00106314305E04FF6F576AB
:104DE000314044F00106314302830184F0BD70B5C7
:104DF00005460C465D4885420ED05D4885420BD085
:104E0000B5F1804F08D05B48854205D05A488542AD
:104E100002D05A48854200D100E000BF208850B936
:104E20002389A28861882846FFF7ABFFE1882846DE
:104E3000FFF79EFF25E0208804280AD12389A28855
:104E400061882846FFF753FFE1882846FFF742FFB5
:104E500017E0208808280AD12389A288618828467B
:104E6000FFF7FBFEE1882846FFF7EEFE09E0238905
:104E7000A28861882846FFF7A6FEE1882846FFF74A
:104E800095FE70BD2DE9F04105460C460026012730
:104E9000608808B9022600E00026A088012801D118
:104EA000022700E001272088A0B92389A288618811
:104EB0002846FFF766FFE1882846FFF759FF238958
:104EC0003A4631462846FFF712FFE1882846FFF7A9
:104ED00001FF13E02389A28861882846FFF707FFB6
:104EE000E1882846FFF7F6FE23893A4631462846F0
:104EF000FFF747FFE1882846FFF73AFFBDE8F0815A
:104F00000A884B881A438B881A43CB881A430B892B
:104F10001A434B891A438B891A43A0F844207047DF
:104F20004FF6FF71818000210180C18041800172B4
:104F300070470021018041808180C18001814181D1
:104F40008181C181704700210180418001218180E0
:104F50000021C18001817047002101804180818052
:104F6000C18001814181818170470000002C014096
:104F7000003401400004004000080040000C0040E4
:104F800021B1028842F00102028004E002884FF65B
:104F9000FE731A400280704731B1B0F8442042F4E9
:104FA0000042A0F8442005E0B0F84420C2F30E020D
:104FB000A0F8442070471AB183890B43838102E033
:104FC00083898B43838170478182704741EA020362
:104FD000A0F8483070471AB183890B43838102E0FF
:104FE00083898B438381704701894FF6F8721140A2
:104FF000018170470A46002101894FF68F731940DD
:1050000011430181704730B504460D4629462046BC
:10501000FFF7F0FF208940F00700208130BD2DE927
:10502000F04104460D4616461F46602D06D13B460C
:10503000012231462046FFF75AFE05E03B46012299
:1050400031462046FFF79DFE29462046FFF7D2FF56
:10505000208940F007002081BDE8F08130B50C4682
:1050600000210189C9B24FF6FF7505EA03251543F2
:1050700025432943018130BD2DE9F04105460E4607
:1050800017469846002443463A4631462846FFF7DD
:10509000E5FF2C894FF6F870044044F007044FF602
:1050A0008F70044044F070042C81BDE8F081F0B5AD
:1050B00004460D4616461F463B46324629462046C4
:1050C000FFF7CCFF208940F480402081F0BD0185AE
:1050D000828270470A46002101884FF68F7319407B
:1050E000114301807047F0B50C4615461E4600215D
:1050F000002200230189028B038C4FF6F877394098
:1051000021434FF6FC473A4040F201173A434FF62D
:10511000DD773B404FF6FF7707EA06172F433B4307
:10512000018102830384F0BD0A460021018B4FF602
:105130008F7319401143018370470A460021018B88
:1051400048F6FF7319404FF6FF7303EA0223194331
:10515000018370470A460021818B4FF68F731940F7
:105160001143818370470A460021818B48F6FF7303
:1051700019404FF6FF7303EA0223194381837047F6
:1051800021B1028842F08002028004E002884FF6DA
:105190007F731A400280704721B1828842F0040276
:1051A000828004E082884FF6FB731A408280704749
:1051B00021B1828842F00802828004E082884FF6A2
:1051C000F7731A408280704721B1828842F0010251
:1051D000828004E082884FF6FE731A408280704716
:1051E0000A460021018B4FF6F773194011430183E2
:1051F00070470A460021018B4FF2FF7319404FF6AA
:10520000FF7303EA02231943018370470A46002112
:10521000818B4FF6F77319401143818370470A461B
:105220000021818B4FF2FF7319404FF6FF7303EAA1
:1052300002231943818370470A460021018B4FF6F0
:10524000FB7319401143018370470A460021018B0B
:105250004FF6FF3319404FF6FF7303EA0223194359
:10526000018370470A460021818B4FF6FB7319407A
:105270001143818370470A460021818B4FF6FF332B
:1052800019404FF6FF7303EA0223194381837047E5
:105290000A460021018B4FF67F73194011430183A9
:1052A00070470A460021018BC1F30E014FF6FF73D0
:1052B00003EA02231943018370470A460021818BC8
:1052C0004FF67F7319401143818370470A460021CE
:1052D000818BC1F30E014FF6FF7303EA02231943DA
:1052E000818370470A460021018C4FF6FD731940F7
:1052F0001143018470470A460021018C4FF6F77371
:1053000019401143018470470A460021018C4FF671
:10531000DF7319404FF6FF7303EA02131943018448
:1053200070470A460021018C4FF67F7319404FF6F3
:10533000FF7303EA02131943018470470A460021F0
:10534000018C4FF6FF5319404FF6FF7303EA022317
:105350001943018470470A460021018C4FF2FF7304
:1053600019404FF6FF7303EA022319430184704783
:105370000A460021018C4DF6FF7319404FF6FF736A
:1053800003EA023319430184704730B50023012436
:105390008C40A3B2048C9C430484048C02FA01F573
:1053A000ADB22C43048430BD30B5002304248C40BE
:1053B000A3B2048C9C430484048C02FA01F5ADB2C0
:1053C0002C43048430BD70B50346002000241846E9
:1053D000183001258D40ACB21D8CA5431D8409B148
:1053E000082909D100EB6100056825F0700505600A
:1053F0000568154305600EE00D1FC5F34E052844F2
:10540000056825F4E045056005684FF6FF7606EA75
:1054100002263543056070BD21B1028842F00202C8
:10542000028004E002884FF6FD731A400280704744
:1054300021B1028842F00402028004E002884FF6A3
:10544000FB731A400280704721B1828842F08002CB
:10545000828004E082884FF67F731A408280704712
:1054600002884FF6F7731A40028002880A430280CE
:10547000704782884FF68F731A40828082880A4371
:105480008280704702894FF6F8731A4002810289C0
:105490000A430281704702894FF67F731A400281E6
:1054A00002890A4302817047818470478185704771
:1054B000818670470187704781877047A0F8401048
:1054C000704702884FF6FF431A40028002880A4361
:1054D000028070470146888E70470146088F7047EA
:1054E0000146888F70470146B1F840007047014679
:1054F000888C70470146088D704702460020138A49
:105500000B400BB1012000E000207047CA4302822B
:10551000704730B50246002000230024158A05EAB2
:105520000103958905EA010413B10CB1012000E0E3
:10553000002030BDCA4302827047000010B5044607
:10554000FA48844208D101214015FEF7A7FC00214A
:105550006015FEF7A3FC17E0F548844208D101214D
:105560000015FEF79BFC00212015FEF797FC0BE0D1
:10557000F048844208D10121C803FEF78FFC0021C6
:105580004FF40040FEF78AFC10BD30B50246002003
:1055900000235068E84C20400D790C6844EA05244B
:1055A000204350609068E54C2040D1E902542C43E0
:1055B0004D7944EA450420439060D06A20F470009D
:1055C0000C7C641EE4B2234340EA0350D06230BD39
:1055D00000210160017141718160C160012101748C
:1055E000704721B1826842F00102826003E0826864
:1055F00022F001028260704721B1826842F4807219
:10560000826003E0826822F480728260704710B585
:105610000023CBB21AB144681C43446002E04468E2
:105620009C43446010BD816841F00801816070476F
:10563000014600208A6802F008020AB1012000E059
:1056400000207047816841F0040181607047014685
:1056500000208A6802F004020AB1012000E0002064
:10566000704721B1826842F4A002826003E0826840
:1056700022F4A00282607047014600208A6802F48A
:1056800080020AB1012000E00020704710B50A46F0
:1056900000210023416821F46041531E41EA433157
:1056A000416010BD21B1426842F40062426003E0F3
:1056B000426822F4006242607047F0B504460D462D
:1056C00000200021092D11DDE068A5F10A0606EB96
:1056D0004607072606FA07F18843A5F10A0606EBF6
:1056E000460603FA06F10843E0600CE0206905EB8A
:1056F0004507072606FA07F1884305EB450603FA36
:1057000006F108432061072A0FDA606B561E06EB8C
:1057100086071F2606FA07F18843561E06EB860603
:1057200005FA06F10843606322E00D2A0FDA206BC8
:10573000D61F06EB86071F2606FA07F18843D61FF9
:1057400006EB860605FA06F10843206310E0E06ADE
:10575000A2F10D0606EB86071F2606FA07F188431D
:10576000A2F10D0606EB860605FA06F10843E06293
:10577000F0BD21B1826842F48012826003E0826849
:1057800022F48012826070470146C86C80B2704774
:1057900066484C300068704721B1426842F480622C
:1057A000426003E0426822F480624260704721B1A7
:1057B000426842F48052426003E0426822F4805220
:1057C000426070470A460021816821F4E04111439C
:1057D0008160704721B1826842F40042826003E038
:1057E000826822F400428260704721B1826842F4EC
:1057F0000212826003E0826822F402128260704723
:10580000014600208A6802F400120AB1012000E07B
:1058100000207047F0B504461546002000220026FF
:10582000092911DDE068A1F10A0707EB470C0727FA
:1058300007FA0CF29043A1F10A0707EB470703FAB6
:1058400007F21043E0600CE0206901EB410C0727F0
:1058500007FA0CF2904301EB410703FA07F21043F9
:105860002061A06BC0F30156EF1C06F1010CA7EB01
:105870000C0707EB870C1F2707FA0CF29043EF1C6D
:1058800006F1010CA7EB0C0707EB870701FA07F2FB
:105890001043A063F0BD10B50A4600210023816BC0
:1058A00021F44011531E41EA0351816310BD08B534
:1058B000002300930090009B0B440093009B1A6010
:1058C00008BD08B5024600200090009201F12800B2
:1058D000009B184400900098006880B208BD0A46FA
:1058E00000214168164B19401143416070474162E5
:1058F000826270470A460021416821F01F0111436E
:105900004160704740B109490831096841F400011C
:10591000064A0832116007E004490831096821F499
:105920000001024A08321160704700000024014063
:1059300000280140003C0140FFFEF0FFFDF7F1FFB1
:10594000FFFD3FFF0246002013680B400BB1012012
:1059500000E000207047CA430260704770B50246FD
:105960000020002300240B125568CEB205EA06047D
:1059700015681D4015B10CB1012000E0002070BD7C
:1059800000220A12D3430360704770470FB40449E2
:1059900010B503AA029800F0CDF810BC5DF814FB16
:1059A000900100202DE9F0410E46044600202062BF
:1059B0002046E168884730B3252805D0D4E9012185
:1059C0009047206A401CF2E7E1682046002788479C
:1059D000050018D0A5F14100192802D820354FF450
:1059E00000673246294620462760FAF7FBFB40B1A4
:1059F000012804D0F61D26F007060836D8E7361D24
:105A0000D6E72846DAE7206ABDE8F08170B50C4693
:105A10000546012A05D02878800600D5EA690023CA
:105A200002E0012305E05B1C934202D2E05C002807
:105A3000F9D1A869E618C01AA861286A1844286232
:105A40002846AFF3008004E0D5E9012114F8010BEA
:105A50009047B442F8D32846AFF3008070BD30B50C
:105A600005460B462A4613F8014B12F8010B08B104
:105A7000A042F8D01CB1002802D06D1CF1E72846E6
:105A800030BD421E12F8013F002BFBD111F8013B43
:105A9000002B02F8013BF9D1704710B5203AC0F055
:105AA0000B80B1E81850203AA0E81850B1E818501F
:105AB000A0E81850BFF4F5AF5FEA027C24BFB1E85C
:105AC0001850A0E8185044BF18C918C0BDE81040CD
:105AD0005FEA827C24BF51F8043B40F8043B08BFD6
